{
  "_format": "hh-sol-artifact-1",
  "contractName": "StoreManager",
  "sourceName": "contracts/StoreManager.sol",
  "abi": [
    {
      "anonymous": false,
      "inputs": [
        {
          "indexed": true,
          "internalType": "address",
          "name": "merchant",
          "type": "address"
        },
        {
          "indexed": false,
          "internalType": "bool",
          "name": "isPremium",
          "type": "bool"
        }
      ],
      "name": "MerchantRegistered",
      "type": "event"
    },
    {
      "anonymous": false,
      "inputs": [
        {
          "indexed": true,
          "internalType": "address",
          "name": "merchant",
          "type": "address"
        },
        {
          "indexed": false,
          "internalType": "uint256",
          "name": "storeId",
          "type": "uint256"
        }
      ],
      "name": "StoreAdded",
      "type": "event"
    },
    {
      "inputs": [],
      "name": "addStore",
      "outputs": [],
      "stateMutability": "nonpayable",
      "type": "function"
    },
    {
      "inputs": [],
      "name": "getMerchantCount",
      "outputs": [
        {
          "internalType": "uint256",
          "name": "",
          "type": "uint256"
        }
      ],
      "stateMutability": "view",
      "type": "function"
    },
    {
      "inputs": [
        {
          "internalType": "address",
          "name": "walletAddress",
          "type": "address"
        }
      ],
      "name": "getMerchantInfo",
      "outputs": [
        {
          "internalType": "bool",
          "name": "isRegistered",
          "type": "bool"
        },
        {
          "internalType": "bool",
          "name": "isPremium",
          "type": "bool"
        },
        {
          "internalType": "uint256",
          "name": "registrationDate",
          "type": "uint256"
        },
        {
          "internalType": "uint256",
          "name": "storeCount",
          "type": "uint256"
        },
        {
          "internalType": "address[]",
          "name": "acceptedTokens",
          "type": "address[]"
        }
      ],
      "stateMutability": "view",
      "type": "function"
    },
    {
      "inputs": [
        {
          "internalType": "address",
          "name": "walletAddress",
          "type": "address"
        },
        {
          "internalType": "uint256",
          "name": "storeId",
          "type": "uint256"
        }
      ],
      "name": "getStoreInfo",
      "outputs": [
        {
          "internalType": "uint256",
          "name": "",
          "type": "uint256"
        },
        {
          "internalType": "uint256",
          "name": "",
          "type": "uint256"
        },
        {
          "internalType": "uint256",
          "name": "",
          "type": "uint256"
        },
        {
          "internalType": "uint256",
          "name": "",
          "type": "uint256"
        },
        {
          "internalType": "uint256",
          "name": "",
          "type": "uint256"
        },
        {
          "internalType": "uint256",
          "name": "",
          "type": "uint256"
        }
      ],
      "stateMutability": "view",
      "type": "function"
    },
    {
      "inputs": [
        {
          "internalType": "address",
          "name": "merchant",
          "type": "address"
        }
      ],
      "name": "isMerchantRegistered",
      "outputs": [
        {
          "internalType": "bool",
          "name": "",
          "type": "bool"
        }
      ],
      "stateMutability": "view",
      "type": "function"
    },
    {
      "inputs": [
        {
          "internalType": "uint256",
          "name": "",
          "type": "uint256"
        }
      ],
      "name": "merchantAddresses",
      "outputs": [
        {
          "internalType": "address",
          "name": "",
          "type": "address"
        }
      ],
      "stateMutability": "view",
      "type": "function"
    },
    {
      "inputs": [
        {
          "internalType": "address",
          "name": "",
          "type": "address"
        }
      ],
      "name": "merchants",
      "outputs": [
        {
          "internalType": "bool",
          "name": "isRegistered",
          "type": "bool"
        },
        {
          "internalType": "address",
          "name": "walletAddress",
          "type": "address"
        },
        {
          "internalType": "bool",
          "name": "isPremium",
          "type": "bool"
        },
        {
          "internalType": "uint256",
          "name": "registrationDate",
          "type": "uint256"
        },
        {
          "internalType": "uint256",
          "name": "storeCount",
          "type": "uint256"
        }
      ],
      "stateMutability": "view",
      "type": "function"
    },
    {
      "inputs": [],
      "name": "owner",
      "outputs": [
        {
          "internalType": "address",
          "name": "",
          "type": "address"
        }
      ],
      "stateMutability": "view",
      "type": "function"
    },
    {
      "inputs": [
        {
          "internalType": "bool",
          "name": "isPremium",
          "type": "bool"
        },
        {
          "internalType": "address[]",
          "name": "acceptedTokens",
          "type": "address[]"
        }
      ],
      "name": "registerMerchant",
      "outputs": [],
      "stateMutability": "nonpayable",
      "type": "function"
    },
    {
      "inputs": [
        {
          "internalType": "address",
          "name": "walletAddress",
          "type": "address"
        },
        {
          "internalType": "address[]",
          "name": "newTokens",
          "type": "address[]"
        }
      ],
      "name": "updateAcceptedTokens",
      "outputs": [],
      "stateMutability": "nonpayable",
      "type": "function"
    }
  ],
  "bytecode": "0x608060405234801561001057600080fd5b50336000806101000a81548173ffffffffffffffffffffffffffffffffffffffff021916908373ffffffffffffffffffffffffffffffffffffffff16021790555061154e806100606000396000f3fe608060405234801561001057600080fd5b506004361061009e5760003560e01c80638da5cb5b116100665780638da5cb5b1461015d578063bb1b3d6c1461017b578063c439045c146101b0578063ee14e939146101ba578063fe34095c146101ee5761009e565b80630d824352146100a35780630e733ef1146100d357806344d4aeb01461010757806378182b34146101255780638002707414610141575b600080fd5b6100bd60048036038101906100b89190610d5c565b61021e565b6040516100ca9190610da4565b60405180910390f35b6100ed60048036038101906100e89190610d5c565b610277565b6040516100fe959493929190610e96565b60405180910390f35b61010f610390565b60405161011c9190610ef0565b60405180910390f35b61013f600480360381019061013a9190610f9c565b61039d565b005b61015b60048036038101906101569190610ffc565b61066e565b005b6101656107c2565b604051610172919061106b565b60405180910390f35b610195600480360381019061019091906110b2565b6107e6565b6040516101a7969594939291906110f2565b60405180910390f35b6101b861087b565b005b6101d460048036038101906101cf9190610d5c565b610b67565b6040516101e5959493929190611153565b60405180910390f35b610208600480360381019061020391906111a6565b610bd7565b604051610215919061106b565b60405180910390f35b6000600160008373ffffffffffffffffffffffffffffffffffffffff1673ffffffffffffffffffffffffffffffffffffffff16815260200190815260200160002060000160009054906101000a900460ff169050919050565b60008060008060606000600160008873ffffffffffffffffffffffffffffffffffffffff1673ffffffffffffffffffffffffffffffffffffffff16815260200190815260200160002090508060000160009054906101000a900460ff168160000160159054906101000a900460ff1682600101548360030154846002018080548060200260200160405190810160405280929190818152602001828054801561037557602002820191906000526020600020905b8160009054906101000a900473ffffffffffffffffffffffffffffffffffffffff1673ffffffffffffffffffffffffffffffffffffffff168152602001906001019080831161032b575b50505050509050955095509550955095505091939590929450565b6000600280549050905090565b600160003373ffffffffffffffffffffffffffffffffffffffff1673ffffffffffffffffffffffffffffffffffffffff16815260200190815260200160002060000160009054906101000a900460ff161561042d576040517f08c379a000000000000000000000000000000000000000000000000000000000815260040161042490611230565b60405180910390fd5b6000600160003373ffffffffffffffffffffffffffffffffffffffff1673ffffffffffffffffffffffffffffffffffffffff168152602001908152602001600020905060018160000160006101000a81548160ff021916908315150217905550338160000160016101000a81548173ffffffffffffffffffffffffffffffffffffffff021916908373ffffffffffffffffffffffffffffffffffffffff160217905550838160000160156101000a81548160ff0219169083151502179055504281600101819055506000816003018190555080600201600061050f9190610c16565b60005b838390508110156105b6578160020184848381811061053457610533611250565b5b90506020020160208101906105499190610d5c565b9080600181540180825580915050600190039060005260206000200160009091909190916101000a81548173ffffffffffffffffffffffffffffffffffffffff021916908373ffffffffffffffffffffffffffffffffffffffff1602179055508080600101915050610512565b506002339080600181540180825580915050600190039060005260206000200160009091909190916101000a81548173ffffffffffffffffffffffffffffffffffffffff021916908373ffffffffffffffffffffffffffffffffffffffff1602179055503373ffffffffffffffffffffffffffffffffffffffff167fcbf8d92b47e3521ddd35d4b21b5774b4f88c19d2264c60ea1c3deb007552a536856040516106609190610da4565b60405180910390a250505050565b8273ffffffffffffffffffffffffffffffffffffffff163373ffffffffffffffffffffffffffffffffffffffff16146106dc576040517f08c379a00000000000000000000000000000000000000000000000000000000081526004016106d3906112f1565b60405180910390fd5b600160008473ffffffffffffffffffffffffffffffffffffffff1673ffffffffffffffffffffffffffffffffffffffff16815260200190815260200160002060000160009054906101000a900460ff1661076b576040517f08c379a00000000000000000000000000000000000000000000000000000000081526004016107629061135d565b60405180910390fd5b8181600160008673ffffffffffffffffffffffffffffffffffffffff1673ffffffffffffffffffffffffffffffffffffffff16815260200190815260200160002060020191906107bc929190610c37565b50505050565b60008054906101000a900473ffffffffffffffffffffffffffffffffffffffff1681565b6000806000806000806000600160008a73ffffffffffffffffffffffffffffffffffffffff1673ffffffffffffffffffffffffffffffffffffffff16815260200190815260200160002060040160008981526020019081526020016000209050806000015481600101548260020154836003015484600401548560050154965096509650965096509650509295509295509295565b600160003373ffffffffffffffffffffffffffffffffffffffff1673ffffffffffffffffffffffffffffffffffffffff16815260200190815260200160002060000160009054906101000a900460ff1661090a576040517f08c379a0000000000000000000000000000000000000000000000000000000008152600401610901906113ef565b60405180910390fd5b600160003373ffffffffffffffffffffffffffffffffffffffff1673ffffffffffffffffffffffffffffffffffffffff16815260200190815260200160002060000160159054906101000a900460ff166109e4576000600160003373ffffffffffffffffffffffffffffffffffffffff1673ffffffffffffffffffffffffffffffffffffffff16815260200190815260200160002060030154146109e3576040517f08c379a00000000000000000000000000000000000000000000000000000000081526004016109da90611481565b60405180910390fd5b5b6000600160003373ffffffffffffffffffffffffffffffffffffffff1673ffffffffffffffffffffffffffffffffffffffff1681526020019081526020016000206003015490506000600160003373ffffffffffffffffffffffffffffffffffffffff1673ffffffffffffffffffffffffffffffffffffffff168152602001908152602001600020600401600083815260200190815260200160002090506000816000018190555060008160010181905550600081600201819055506000816003018190555042816004018190555060008160050181905550600160003373ffffffffffffffffffffffffffffffffffffffff1673ffffffffffffffffffffffffffffffffffffffff1681526020019081526020016000206003016000815480929190610b10906114d0565b91905055503373ffffffffffffffffffffffffffffffffffffffff167f05c312fcc9dbe37eaa0b2a9575a60a403d8818ba55a0cb595b59fd7c91bd72f183604051610b5b9190610ef0565b60405180910390a25050565b60016020528060005260406000206000915090508060000160009054906101000a900460ff16908060000160019054906101000a900473ffffffffffffffffffffffffffffffffffffffff16908060000160159054906101000a900460ff16908060010154908060030154905085565b60028181548110610be757600080fd5b906000526020600020016000915054906101000a900473ffffffffffffffffffffffffffffffffffffffff1681565b5080546000825590600052602060002090810190610c349190610cd7565b50565b828054828255906000526020600020908101928215610cc6579160200282015b82811115610cc557823573ffffffffffffffffffffffffffffffffffffffff168260006101000a81548173ffffffffffffffffffffffffffffffffffffffff021916908373ffffffffffffffffffffffffffffffffffffffff16021790555091602001919060010190610c57565b5b509050610cd39190610cd7565b5090565b5b80821115610cf0576000816000905550600101610cd8565b5090565b600080fd5b600080fd5b600073ffffffffffffffffffffffffffffffffffffffff82169050919050565b6000610d2982610cfe565b9050919050565b610d3981610d1e565b8114610d4457600080fd5b50565b600081359050610d5681610d30565b92915050565b600060208284031215610d7257610d71610cf4565b5b6000610d8084828501610d47565b91505092915050565b60008115159050919050565b610d9e81610d89565b82525050565b6000602082019050610db96000830184610d95565b92915050565b6000819050919050565b610dd281610dbf565b82525050565b600081519050919050565b600082825260208201905092915050565b6000819050602082019050919050565b610e0d81610d1e565b82525050565b6000610e1f8383610e04565b60208301905092915050565b6000602082019050919050565b6000610e4382610dd8565b610e4d8185610de3565b9350610e5883610df4565b8060005b83811015610e89578151610e708882610e13565b9750610e7b83610e2b565b925050600181019050610e5c565b5085935050505092915050565b600060a082019050610eab6000830188610d95565b610eb86020830187610d95565b610ec56040830186610dc9565b610ed26060830185610dc9565b8181036080830152610ee48184610e38565b90509695505050505050565b6000602082019050610f056000830184610dc9565b92915050565b610f1481610d89565b8114610f1f57600080fd5b50565b600081359050610f3181610f0b565b92915050565b600080fd5b600080fd5b600080fd5b60008083601f840112610f5c57610f5b610f37565b5b8235905067ffffffffffffffff811115610f7957610f78610f3c565b5b602083019150836020820283011115610f9557610f94610f41565b5b9250929050565b600080600060408486031215610fb557610fb4610cf4565b5b6000610fc386828701610f22565b935050602084013567ffffffffffffffff811115610fe457610fe3610cf9565b5b610ff086828701610f46565b92509250509250925092565b60008060006040848603121561101557611014610cf4565b5b600061102386828701610d47565b935050602084013567ffffffffffffffff81111561104457611043610cf9565b5b61105086828701610f46565b92509250509250925092565b61106581610d1e565b82525050565b6000602082019050611080600083018461105c565b92915050565b61108f81610dbf565b811461109a57600080fd5b50565b6000813590506110ac81611086565b92915050565b600080604083850312156110c9576110c8610cf4565b5b60006110d785828601610d47565b92505060206110e88582860161109d565b9150509250929050565b600060c0820190506111076000830189610dc9565b6111146020830188610dc9565b6111216040830187610dc9565b61112e6060830186610dc9565b61113b6080830185610dc9565b61114860a0830184610dc9565b979650505050505050565b600060a0820190506111686000830188610d95565b611175602083018761105c565b6111826040830186610d95565b61118f6060830185610dc9565b61119c6080830184610dc9565b9695505050505050565b6000602082840312156111bc576111bb610cf4565b5b60006111ca8482850161109d565b91505092915050565b600082825260208201905092915050565b7f4d65726368616e7420616c726561647920726567697374657265642e00000000600082015250565b600061121a601c836111d3565b9150611225826111e4565b602082019050919050565b600060208201905081810360008301526112498161120d565b9050919050565b7f4e487b7100000000000000000000000000000000000000000000000000000000600052603260045260246000fd5b7f556e617574686f72697a65643a2063616e206f6e6c792075706461746520796f60008201527f7572206f776e20746f6b656e7300000000000000000000000000000000000000602082015250565b60006112db602d836111d3565b91506112e68261127f565b604082019050919050565b6000602082019050818103600083015261130a816112ce565b9050919050565b7f4d65726368616e74206e6f7420726567697374657265642e0000000000000000600082015250565b60006113476018836111d3565b915061135282611311565b602082019050919050565b600060208201905081810360008301526113768161133a565b9050919050565b7f53746f72654d616e616765723a204d65726368616e74206e6f7420726567697360008201527f7465726564000000000000000000000000000000000000000000000000000000602082015250565b60006113d96025836111d3565b91506113e48261137d565b604082019050919050565b60006020820190508181036000830152611408816113cc565b9050919050565b7f53746f72654d616e616765723a204e6f6e2d7072656d69756d206d657263686160008201527f6e74732063616e206f6e6c792068617665206f6e652073746f72650000000000602082015250565b600061146b603b836111d3565b91506114768261140f565b604082019050919050565b6000602082019050818103600083015261149a8161145e565b9050919050565b7f4e487b7100000000000000000000000000000000000000000000000000000000600052601160045260246000fd5b60006114db82610dbf565b91507fffffffffffffffffffffffffffffffffffffffffffffffffffffffffffffffff820361150d5761150c6114a1565b5b60018201905091905056fea26469706673582212206de1bcb911aabe0ce7925a70d39eb12ac1ee1c731b6d1c59c8c904fe3610962964736f6c63430008180033",
  "linkReferences": {},
  "deployedLinkReferences": {}
}