{
  "_format": "hh-sol-artifact-1",
  "contractName": "TokenManager",
  "sourceName": "contracts/TokenManager.sol",
  "abi": [
    {
      "anonymous": false,
      "inputs": [
        {
          "indexed": true,
          "internalType": "address",
          "name": "merchant",
          "type": "address"
        },
        {
          "indexed": false,
          "internalType": "bool",
          "name": "isPremium",
          "type": "bool"
        }
      ],
      "name": "MerchantRegistered",
      "type": "event"
    },
    {
      "anonymous": false,
      "inputs": [
        {
          "indexed": true,
          "internalType": "address",
          "name": "merchant",
          "type": "address"
        },
        {
          "indexed": false,
          "internalType": "address",
          "name": "token",
          "type": "address"
        }
      ],
      "name": "TokenAdded",
      "type": "event"
    },
    {
      "anonymous": false,
      "inputs": [
        {
          "indexed": true,
          "internalType": "address",
          "name": "merchant",
          "type": "address"
        },
        {
          "indexed": false,
          "internalType": "address",
          "name": "token",
          "type": "address"
        }
      ],
      "name": "TokenRemoved",
      "type": "event"
    },
    {
      "anonymous": false,
      "inputs": [
        {
          "indexed": false,
          "internalType": "address",
          "name": "token",
          "type": "address"
        }
      ],
      "name": "TokenSupported",
      "type": "event"
    },
    {
      "anonymous": false,
      "inputs": [
        {
          "indexed": false,
          "internalType": "address",
          "name": "token",
          "type": "address"
        }
      ],
      "name": "TokenUnsupported",
      "type": "event"
    },
    {
      "inputs": [
        {
          "internalType": "address",
          "name": "merchant",
          "type": "address"
        },
        {
          "internalType": "address",
          "name": "token",
          "type": "address"
        }
      ],
      "name": "addAcceptedToken",
      "outputs": [],
      "stateMutability": "nonpayable",
      "type": "function"
    },
    {
      "inputs": [],
      "name": "getMerchantCount",
      "outputs": [
        {
          "internalType": "uint256",
          "name": "",
          "type": "uint256"
        }
      ],
      "stateMutability": "view",
      "type": "function"
    },
    {
      "inputs": [
        {
          "internalType": "address",
          "name": "walletAddress",
          "type": "address"
        }
      ],
      "name": "getMerchantInfo",
      "outputs": [
        {
          "internalType": "bool",
          "name": "isRegistered",
          "type": "bool"
        },
        {
          "internalType": "bool",
          "name": "isPremium",
          "type": "bool"
        },
        {
          "internalType": "uint256",
          "name": "registrationDate",
          "type": "uint256"
        },
        {
          "internalType": "uint256",
          "name": "storeCount",
          "type": "uint256"
        },
        {
          "internalType": "address[]",
          "name": "acceptedTokens",
          "type": "address[]"
        }
      ],
      "stateMutability": "view",
      "type": "function"
    },
    {
      "inputs": [
        {
          "internalType": "address",
          "name": "merchant",
          "type": "address"
        }
      ],
      "name": "isMerchantRegistered",
      "outputs": [
        {
          "internalType": "bool",
          "name": "",
          "type": "bool"
        }
      ],
      "stateMutability": "view",
      "type": "function"
    },
    {
      "inputs": [
        {
          "internalType": "address",
          "name": "merchant",
          "type": "address"
        },
        {
          "internalType": "address",
          "name": "token",
          "type": "address"
        }
      ],
      "name": "isTokenAccepted",
      "outputs": [
        {
          "internalType": "bool",
          "name": "",
          "type": "bool"
        }
      ],
      "stateMutability": "view",
      "type": "function"
    },
    {
      "inputs": [
        {
          "internalType": "address",
          "name": "",
          "type": "address"
        },
        {
          "internalType": "uint256",
          "name": "",
          "type": "uint256"
        }
      ],
      "name": "merchantAcceptedTokens",
      "outputs": [
        {
          "internalType": "address",
          "name": "",
          "type": "address"
        }
      ],
      "stateMutability": "view",
      "type": "function"
    },
    {
      "inputs": [
        {
          "internalType": "uint256",
          "name": "",
          "type": "uint256"
        }
      ],
      "name": "merchantAddresses",
      "outputs": [
        {
          "internalType": "address",
          "name": "",
          "type": "address"
        }
      ],
      "stateMutability": "view",
      "type": "function"
    },
    {
      "inputs": [
        {
          "internalType": "address",
          "name": "",
          "type": "address"
        }
      ],
      "name": "merchants",
      "outputs": [
        {
          "internalType": "bool",
          "name": "isRegistered",
          "type": "bool"
        },
        {
          "internalType": "address",
          "name": "walletAddress",
          "type": "address"
        },
        {
          "internalType": "bool",
          "name": "isPremium",
          "type": "bool"
        },
        {
          "internalType": "uint256",
          "name": "registrationDate",
          "type": "uint256"
        },
        {
          "internalType": "uint256",
          "name": "storeCount",
          "type": "uint256"
        }
      ],
      "stateMutability": "view",
      "type": "function"
    },
    {
      "inputs": [],
      "name": "owner",
      "outputs": [
        {
          "internalType": "address",
          "name": "",
          "type": "address"
        }
      ],
      "stateMutability": "view",
      "type": "function"
    },
    {
      "inputs": [
        {
          "internalType": "bool",
          "name": "isPremium",
          "type": "bool"
        },
        {
          "internalType": "address[]",
          "name": "acceptedTokens",
          "type": "address[]"
        }
      ],
      "name": "registerMerchant",
      "outputs": [],
      "stateMutability": "nonpayable",
      "type": "function"
    },
    {
      "inputs": [
        {
          "internalType": "address",
          "name": "merchant",
          "type": "address"
        },
        {
          "internalType": "address",
          "name": "token",
          "type": "address"
        }
      ],
      "name": "removeAcceptedToken",
      "outputs": [],
      "stateMutability": "nonpayable",
      "type": "function"
    },
    {
      "inputs": [
        {
          "internalType": "address",
          "name": "token",
          "type": "address"
        }
      ],
      "name": "stopSupportingToken",
      "outputs": [],
      "stateMutability": "nonpayable",
      "type": "function"
    },
    {
      "inputs": [
        {
          "internalType": "address",
          "name": "token",
          "type": "address"
        }
      ],
      "name": "supportNewToken",
      "outputs": [],
      "stateMutability": "nonpayable",
      "type": "function"
    },
    {
      "inputs": [
        {
          "internalType": "address",
          "name": "",
          "type": "address"
        }
      ],
      "name": "supportedTokens",
      "outputs": [
        {
          "internalType": "bool",
          "name": "",
          "type": "bool"
        }
      ],
      "stateMutability": "view",
      "type": "function"
    },
    {
      "inputs": [
        {
          "internalType": "address",
          "name": "walletAddress",
          "type": "address"
        },
        {
          "internalType": "address[]",
          "name": "newTokens",
          "type": "address[]"
        }
      ],
      "name": "updateAcceptedTokens",
      "outputs": [],
      "stateMutability": "nonpayable",
      "type": "function"
    },
    {
      "inputs": [
        {
          "internalType": "address",
          "name": "merchant",
          "type": "address"
        }
      ],
      "name": "viewAcceptedTokens",
      "outputs": [
        {
          "internalType": "address[]",
          "name": "",
          "type": "address[]"
        }
      ],
      "stateMutability": "view",
      "type": "function"
    }
  ],
  "bytecode": "0x608060405234801561001057600080fd5b50336000806101000a81548173ffffffffffffffffffffffffffffffffffffffff021916908373ffffffffffffffffffffffffffffffffffffffff160217905550612423806100606000396000f3fe608060405234801561001057600080fd5b50600436106101005760003560e01c80638002707411610097578063b8f41acf11610066578063b8f41acf146102d5578063cf838140146102f1578063ee14e9391461030d578063fe34095c1461034157610100565b8063800270741461024f57806386c720941461026b5780638da5cb5b1461029b578063b2f5884e146102b957610100565b806344d4aeb0116100d357806344d4aeb0146101b55780635210867a146101d357806368c4ac261461020357806378182b341461023357610100565b80630cc30d2b146101055780630d824352146101215780630e733ef1146101515780631cbe400b14610185575b600080fd5b61011f600480360381019061011a919061191b565b610371565b005b61013b6004803603810190610136919061191b565b61051d565b6040516101489190611963565b60405180910390f35b61016b6004803603810190610166919061191b565b610576565b60405161017c959493929190611a55565b60405180910390f35b61019f600480360381019061019a919061191b565b61068f565b6040516101ac9190611aaf565b60405180910390f35b6101bd6107a4565b6040516101ca9190611ad1565b60405180910390f35b6101ed60048036038101906101e89190611aec565b6107b1565b6040516101fa9190611963565b60405180910390f35b61021d6004803603810190610218919061191b565b6108f8565b60405161022a9190611963565b60405180910390f35b61024d60048036038101906102489190611bbd565b610918565b005b61026960048036038101906102649190611c1d565b610be9565b005b61028560048036038101906102809190611ca9565b610d3d565b6040516102929190611cf8565b60405180910390f35b6102a3610d8b565b6040516102b09190611cf8565b60405180910390f35b6102d360048036038101906102ce9190611aec565b610daf565b005b6102ef60048036038101906102ea9190611aec565b61111b565b005b61030b6004803603810190610306919061191b565b61148d565b005b6103276004803603810190610322919061191b565b61163a565b604051610338959493929190611d13565b60405180910390f35b61035b60048036038101906103569190611d66565b6116aa565b6040516103689190611cf8565b60405180910390f35b60008054906101000a900473ffffffffffffffffffffffffffffffffffffffff1673ffffffffffffffffffffffffffffffffffffffff163373ffffffffffffffffffffffffffffffffffffffff16146103ff576040517f08c379a00000000000000000000000000000000000000000000000000000000081526004016103f690611e16565b60405180910390fd5b600360008273ffffffffffffffffffffffffffffffffffffffff1673ffffffffffffffffffffffffffffffffffffffff16815260200190815260200160002060009054906101000a900460ff1661048b576040517f08c379a000000000000000000000000000000000000000000000000000000000815260040161048290611e82565b60405180910390fd5b6000600360008373ffffffffffffffffffffffffffffffffffffffff1673ffffffffffffffffffffffffffffffffffffffff16815260200190815260200160002060006101000a81548160ff0219169083151502179055507ff940d38196f30e7ff3eb255dd42db8d99a75c1ac112199d4fc314ce6460bfc0c816040516105129190611cf8565b60405180910390a150565b6000600160008373ffffffffffffffffffffffffffffffffffffffff1673ffffffffffffffffffffffffffffffffffffffff16815260200190815260200160002060000160009054906101000a900460ff169050919050565b60008060008060606000600160008873ffffffffffffffffffffffffffffffffffffffff1673ffffffffffffffffffffffffffffffffffffffff16815260200190815260200160002090508060000160009054906101000a900460ff168160000160159054906101000a900460ff1682600101548360030154846002018080548060200260200160405190810160405280929190818152602001828054801561067457602002820191906000526020600020905b8160009054906101000a900473ffffffffffffffffffffffffffffffffffffffff1673ffffffffffffffffffffffffffffffffffffffff168152602001906001019080831161062a575b50505050509050955095509550955095505091939590929450565b606061069a8261051d565b6106d9576040517f08c379a00000000000000000000000000000000000000000000000000000000081526004016106d090611eee565b60405180910390fd5b600460008373ffffffffffffffffffffffffffffffffffffffff1673ffffffffffffffffffffffffffffffffffffffff16815260200190815260200160002080548060200260200160405190810160405280929190818152602001828054801561079857602002820191906000526020600020905b8160009054906101000a900473ffffffffffffffffffffffffffffffffffffffff1673ffffffffffffffffffffffffffffffffffffffff168152602001906001019080831161074e575b50505050509050919050565b6000600280549050905090565b600080600460008573ffffffffffffffffffffffffffffffffffffffff1673ffffffffffffffffffffffffffffffffffffffff16815260200190815260200160002080548060200260200160405190810160405280929190818152602001828054801561087357602002820191906000526020600020905b8160009054906101000a900473ffffffffffffffffffffffffffffffffffffffff1673ffffffffffffffffffffffffffffffffffffffff1681526020019060010190808311610829575b5050505050905060005b81518110156108eb578373ffffffffffffffffffffffffffffffffffffffff168282815181106108b0576108af611f0e565b5b602002602001015173ffffffffffffffffffffffffffffffffffffffff16036108de576001925050506108f2565b808060010191505061087d565b5060009150505b92915050565b60036020528060005260406000206000915054906101000a900460ff1681565b600160003373ffffffffffffffffffffffffffffffffffffffff1673ffffffffffffffffffffffffffffffffffffffff16815260200190815260200160002060000160009054906101000a900460ff16156109a8576040517f08c379a000000000000000000000000000000000000000000000000000000000815260040161099f90611f89565b60405180910390fd5b6000600160003373ffffffffffffffffffffffffffffffffffffffff1673ffffffffffffffffffffffffffffffffffffffff168152602001908152602001600020905060018160000160006101000a81548160ff021916908315150217905550338160000160016101000a81548173ffffffffffffffffffffffffffffffffffffffff021916908373ffffffffffffffffffffffffffffffffffffffff160217905550838160000160156101000a81548160ff02191690831515021790555042816001018190555060008160030181905550806002016000610a8a91906117cb565b60005b83839050811015610b315781600201848483818110610aaf57610aae611f0e565b5b9050602002016020810190610ac4919061191b565b9080600181540180825580915050600190039060005260206000200160009091909190916101000a81548173ffffffffffffffffffffffffffffffffffffffff021916908373ffffffffffffffffffffffffffffffffffffffff1602179055508080600101915050610a8d565b506002339080600181540180825580915050600190039060005260206000200160009091909190916101000a81548173ffffffffffffffffffffffffffffffffffffffff021916908373ffffffffffffffffffffffffffffffffffffffff1602179055503373ffffffffffffffffffffffffffffffffffffffff167fcbf8d92b47e3521ddd35d4b21b5774b4f88c19d2264c60ea1c3deb007552a53685604051610bdb9190611963565b60405180910390a250505050565b8273ffffffffffffffffffffffffffffffffffffffff163373ffffffffffffffffffffffffffffffffffffffff1614610c57576040517f08c379a0000000000000000000000000000000000000000000000000000000008152600401610c4e9061201b565b60405180910390fd5b600160008473ffffffffffffffffffffffffffffffffffffffff1673ffffffffffffffffffffffffffffffffffffffff16815260200190815260200160002060000160009054906101000a900460ff16610ce6576040517f08c379a0000000000000000000000000000000000000000000000000000000008152600401610cdd90611eee565b60405180910390fd5b8181600160008673ffffffffffffffffffffffffffffffffffffffff1673ffffffffffffffffffffffffffffffffffffffff1681526020019081526020016000206002019190610d379291906117ec565b50505050565b60046020528160005260406000208181548110610d5957600080fd5b906000526020600020016000915091509054906101000a900473ffffffffffffffffffffffffffffffffffffffff1681565b60008054906101000a900473ffffffffffffffffffffffffffffffffffffffff1681565b610db88261051d565b610df7576040517f08c379a0000000000000000000000000000000000000000000000000000000008152600401610dee90611eee565b60405180910390fd5b8173ffffffffffffffffffffffffffffffffffffffff163373ffffffffffffffffffffffffffffffffffffffff161480610e7c575060008054906101000a900473ffffffffffffffffffffffffffffffffffffffff1673ffffffffffffffffffffffffffffffffffffffff163373ffffffffffffffffffffffffffffffffffffffff16145b610ebb576040517f08c379a0000000000000000000000000000000000000000000000000000000008152600401610eb290612087565b60405180910390fd5b610ec582826107b1565b610f04576040517f08c379a0000000000000000000000000000000000000000000000000000000008152600401610efb906120f3565b60405180910390fd5b6000600460008473ffffffffffffffffffffffffffffffffffffffff1673ffffffffffffffffffffffffffffffffffffffff168152602001908152602001600020905060005b8180549050811015611115578273ffffffffffffffffffffffffffffffffffffffff16828281548110610f8057610f7f611f0e565b5b9060005260206000200160009054906101000a900473ffffffffffffffffffffffffffffffffffffffff1673ffffffffffffffffffffffffffffffffffffffff1603611108578160018380549050610fd89190612142565b81548110610fe957610fe8611f0e565b5b9060005260206000200160009054906101000a900473ffffffffffffffffffffffffffffffffffffffff1682828154811061102757611026611f0e565b5b9060005260206000200160006101000a81548173ffffffffffffffffffffffffffffffffffffffff021916908373ffffffffffffffffffffffffffffffffffffffff160217905550818054806110805761107f612176565b5b6001900381819060005260206000200160006101000a81549073ffffffffffffffffffffffffffffffffffffffff021916905590558373ffffffffffffffffffffffffffffffffffffffff167fbbe55b1ff108e23e5ff1a6f5d36946eec15ec0ca0ded2bfed4cdcf697ca90460846040516110fb9190611cf8565b60405180910390a2611115565b8080600101915050610f4a565b50505050565b61117a6040518060400160405280600681526020017f4f776e65723a000000000000000000000000000000000000000000000000000081525060008054906101000a900473ffffffffffffffffffffffffffffffffffffffff166116e9565b6111b96040518060400160405280600781526020017f53656e6465723a00000000000000000000000000000000000000000000000000815250336116e9565b6111c28261051d565b611201576040517f08c379a00000000000000000000000000000000000000000000000000000000081526004016111f890611eee565b60405180910390fd5b8173ffffffffffffffffffffffffffffffffffffffff163373ffffffffffffffffffffffffffffffffffffffff161480611286575060008054906101000a900473ffffffffffffffffffffffffffffffffffffffff1673ffffffffffffffffffffffffffffffffffffffff163373ffffffffffffffffffffffffffffffffffffffff16145b6112c5576040517f08c379a00000000000000000000000000000000000000000000000000000000081526004016112bc90612087565b60405180910390fd5b600360008273ffffffffffffffffffffffffffffffffffffffff1673ffffffffffffffffffffffffffffffffffffffff16815260200190815260200160002060009054906101000a900460ff16611351576040517f08c379a000000000000000000000000000000000000000000000000000000000815260040161134890612217565b60405180910390fd5b61135b82826107b1565b1561139b576040517f08c379a000000000000000000000000000000000000000000000000000000000815260040161139290612283565b60405180910390fd5b600460008373ffffffffffffffffffffffffffffffffffffffff1673ffffffffffffffffffffffffffffffffffffffff168152602001908152602001600020819080600181540180825580915050600190039060005260206000200160009091909190916101000a81548173ffffffffffffffffffffffffffffffffffffffff021916908373ffffffffffffffffffffffffffffffffffffffff1602179055508173ffffffffffffffffffffffffffffffffffffffff167fdffbd9ded1c09446f09377de547142dcce7dc541c8b0b028142b1eba7026b9e7826040516114819190611cf8565b60405180910390a25050565b60008054906101000a900473ffffffffffffffffffffffffffffffffffffffff1673ffffffffffffffffffffffffffffffffffffffff163373ffffffffffffffffffffffffffffffffffffffff161461151b576040517f08c379a000000000000000000000000000000000000000000000000000000000815260040161151290611e16565b60405180910390fd5b600360008273ffffffffffffffffffffffffffffffffffffffff1673ffffffffffffffffffffffffffffffffffffffff16815260200190815260200160002060009054906101000a900460ff16156115a8576040517f08c379a000000000000000000000000000000000000000000000000000000000815260040161159f906122ef565b60405180910390fd5b6001600360008373ffffffffffffffffffffffffffffffffffffffff1673ffffffffffffffffffffffffffffffffffffffff16815260200190815260200160002060006101000a81548160ff0219169083151502179055507fea3145306a87baeba6bb1a8b5c8d3744f840a81cb436b3509f64fc978600cdfb8160405161162f9190611cf8565b60405180910390a150565b60016020528060005260406000206000915090508060000160009054906101000a900460ff16908060000160019054906101000a900473ffffffffffffffffffffffffffffffffffffffff16908060000160159054906101000a900460ff16908060010154908060030154905085565b600281815481106116ba57600080fd5b906000526020600020016000915054906101000a900473ffffffffffffffffffffffffffffffffffffffff1681565b61178182826040516024016116ff92919061238e565b6040516020818303038152906040527f319af333000000000000000000000000000000000000000000000000000000007bffffffffffffffffffffffffffffffffffffffffffffffffffffffff19166020820180517bffffffffffffffffffffffffffffffffffffffffffffffffffffffff8381831617835250505050611785565b5050565b61179c8161179461179f6117c0565b63ffffffff16565b50565b60006a636f6e736f6c652e6c6f679050600080835160208501845afa505050565b61188c819050919050565b50805460008255906000526020600020908101906117e99190611896565b50565b82805482825590600052602060002090810192821561187b579160200282015b8281111561187a57823573ffffffffffffffffffffffffffffffffffffffff168260006101000a81548173ffffffffffffffffffffffffffffffffffffffff021916908373ffffffffffffffffffffffffffffffffffffffff1602179055509160200191906001019061180c565b5b5090506118889190611896565b5090565b6118946123be565b565b5b808211156118af576000816000905550600101611897565b5090565b600080fd5b600080fd5b600073ffffffffffffffffffffffffffffffffffffffff82169050919050565b60006118e8826118bd565b9050919050565b6118f8816118dd565b811461190357600080fd5b50565b600081359050611915816118ef565b92915050565b600060208284031215611931576119306118b3565b5b600061193f84828501611906565b91505092915050565b60008115159050919050565b61195d81611948565b82525050565b60006020820190506119786000830184611954565b92915050565b6000819050919050565b6119918161197e565b82525050565b600081519050919050565b600082825260208201905092915050565b6000819050602082019050919050565b6119cc816118dd565b82525050565b60006119de83836119c3565b60208301905092915050565b6000602082019050919050565b6000611a0282611997565b611a0c81856119a2565b9350611a17836119b3565b8060005b83811015611a48578151611a2f88826119d2565b9750611a3a836119ea565b925050600181019050611a1b565b5085935050505092915050565b600060a082019050611a6a6000830188611954565b611a776020830187611954565b611a846040830186611988565b611a916060830185611988565b8181036080830152611aa381846119f7565b90509695505050505050565b60006020820190508181036000830152611ac981846119f7565b905092915050565b6000602082019050611ae66000830184611988565b92915050565b60008060408385031215611b0357611b026118b3565b5b6000611b1185828601611906565b9250506020611b2285828601611906565b9150509250929050565b611b3581611948565b8114611b4057600080fd5b50565b600081359050611b5281611b2c565b92915050565b600080fd5b600080fd5b600080fd5b60008083601f840112611b7d57611b7c611b58565b5b8235905067ffffffffffffffff811115611b9a57611b99611b5d565b5b602083019150836020820283011115611bb657611bb5611b62565b5b9250929050565b600080600060408486031215611bd657611bd56118b3565b5b6000611be486828701611b43565b935050602084013567ffffffffffffffff811115611c0557611c046118b8565b5b611c1186828701611b67565b92509250509250925092565b600080600060408486031215611c3657611c356118b3565b5b6000611c4486828701611906565b935050602084013567ffffffffffffffff811115611c6557611c646118b8565b5b611c7186828701611b67565b92509250509250925092565b611c868161197e565b8114611c9157600080fd5b50565b600081359050611ca381611c7d565b92915050565b60008060408385031215611cc057611cbf6118b3565b5b6000611cce85828601611906565b9250506020611cdf85828601611c94565b9150509250929050565b611cf2816118dd565b82525050565b6000602082019050611d0d6000830184611ce9565b92915050565b600060a082019050611d286000830188611954565b611d356020830187611ce9565b611d426040830186611954565b611d4f6060830185611988565b611d5c6080830184611988565b9695505050505050565b600060208284031215611d7c57611d7b6118b3565b5b6000611d8a84828501611c94565b91505092915050565b600082825260208201905092915050565b7f4f6e6c7920746865206f776e65722063616e20706572666f726d20746869732060008201527f616374696f6e0000000000000000000000000000000000000000000000000000602082015250565b6000611e00602683611d93565b9150611e0b82611da4565b604082019050919050565b60006020820190508181036000830152611e2f81611df3565b9050919050565b7f546f6b656e206e6f7420737570706f7274656400000000000000000000000000600082015250565b6000611e6c601383611d93565b9150611e7782611e36565b602082019050919050565b60006020820190508181036000830152611e9b81611e5f565b9050919050565b7f4d65726368616e74206e6f7420726567697374657265642e0000000000000000600082015250565b6000611ed8601883611d93565b9150611ee382611ea2565b602082019050919050565b60006020820190508181036000830152611f0781611ecb565b9050919050565b7f4e487b7100000000000000000000000000000000000000000000000000000000600052603260045260246000fd5b7f4d65726368616e7420616c726561647920726567697374657265642e00000000600082015250565b6000611f73601c83611d93565b9150611f7e82611f3d565b602082019050919050565b60006020820190508181036000830152611fa281611f66565b9050919050565b7f556e617574686f72697a65643a2063616e206f6e6c792075706461746520796f60008201527f7572206f776e20746f6b656e7300000000000000000000000000000000000000602082015250565b6000612005602d83611d93565b915061201082611fa9565b604082019050919050565b6000602082019050818103600083015261203481611ff8565b9050919050565b7f556e617574686f72697a65640000000000000000000000000000000000000000600082015250565b6000612071600c83611d93565b915061207c8261203b565b602082019050919050565b600060208201905081810360008301526120a081612064565b9050919050565b7f546f6b656e206e6f742061636365707465642e00000000000000000000000000600082015250565b60006120dd601383611d93565b91506120e8826120a7565b602082019050919050565b6000602082019050818103600083015261210c816120d0565b9050919050565b7f4e487b7100000000000000000000000000000000000000000000000000000000600052601160045260246000fd5b600061214d8261197e565b91506121588361197e565b92508282039050818111156121705761216f612113565b5b92915050565b7f4e487b7100000000000000000000000000000000000000000000000000000000600052603160045260246000fd5b7f546f6b656e206e6f7420737570706f727465642062792074686520706c61746660008201527f6f726d0000000000000000000000000000000000000000000000000000000000602082015250565b6000612201602383611d93565b915061220c826121a5565b604082019050919050565b60006020820190508181036000830152612230816121f4565b9050919050565b7f546f6b656e20616c72656164792061636365707465642e000000000000000000600082015250565b600061226d601783611d93565b915061227882612237565b602082019050919050565b6000602082019050818103600083015261229c81612260565b9050919050565b7f546f6b656e20616c726561647920737570706f72746564000000000000000000600082015250565b60006122d9601783611d93565b91506122e4826122a3565b602082019050919050565b60006020820190508181036000830152612308816122cc565b9050919050565b600081519050919050565b60005b8381101561233857808201518184015260208101905061231d565b60008484015250505050565b6000601f19601f8301169050919050565b60006123608261230f565b61236a8185611d93565b935061237a81856020860161231a565b61238381612344565b840191505092915050565b600060408201905081810360008301526123a88185612355565b90506123b76020830184611ce9565b9392505050565b7f4e487b7100000000000000000000000000000000000000000000000000000000600052605160045260246000fdfea26469706673582212203bfc339000f2d0b6cbc682c4f3ce37d8e7c47203a94352281d01ba26199901e264736f6c63430008180033",
  "linkReferences": {},
  "deployedLinkReferences": {}
}