{
  "_format": "hh-sol-artifact-1",
  "contractName": "MerchantManager",
  "sourceName": "contracts/MerchantManager.sol",
  "abi": [
    {
      "inputs": [],
      "stateMutability": "nonpayable",
      "type": "constructor"
    },
    {
      "anonymous": false,
      "inputs": [
        {
          "indexed": true,
          "internalType": "address",
          "name": "merchant",
          "type": "address"
        },
        {
          "indexed": false,
          "internalType": "bool",
          "name": "isPremium",
          "type": "bool"
        }
      ],
      "name": "MerchantRegistered",
      "type": "event"
    },
    {
      "inputs": [],
      "name": "getMerchantCount",
      "outputs": [
        {
          "internalType": "uint256",
          "name": "",
          "type": "uint256"
        }
      ],
      "stateMutability": "view",
      "type": "function"
    },
    {
      "inputs": [
        {
          "internalType": "address",
          "name": "walletAddress",
          "type": "address"
        }
      ],
      "name": "getMerchantInfo",
      "outputs": [
        {
          "internalType": "bool",
          "name": "isRegistered",
          "type": "bool"
        },
        {
          "internalType": "bool",
          "name": "isPremium",
          "type": "bool"
        },
        {
          "internalType": "uint256",
          "name": "registrationDate",
          "type": "uint256"
        },
        {
          "internalType": "uint256",
          "name": "storeCount",
          "type": "uint256"
        },
        {
          "internalType": "address[]",
          "name": "acceptedTokens",
          "type": "address[]"
        }
      ],
      "stateMutability": "view",
      "type": "function"
    },
    {
      "inputs": [
        {
          "internalType": "address",
          "name": "merchant",
          "type": "address"
        }
      ],
      "name": "isMerchantRegistered",
      "outputs": [
        {
          "internalType": "bool",
          "name": "",
          "type": "bool"
        }
      ],
      "stateMutability": "view",
      "type": "function"
    },
    {
      "inputs": [
        {
          "internalType": "uint256",
          "name": "",
          "type": "uint256"
        }
      ],
      "name": "merchantAddresses",
      "outputs": [
        {
          "internalType": "address",
          "name": "",
          "type": "address"
        }
      ],
      "stateMutability": "view",
      "type": "function"
    },
    {
      "inputs": [
        {
          "internalType": "address",
          "name": "",
          "type": "address"
        }
      ],
      "name": "merchants",
      "outputs": [
        {
          "internalType": "bool",
          "name": "isRegistered",
          "type": "bool"
        },
        {
          "internalType": "address",
          "name": "walletAddress",
          "type": "address"
        },
        {
          "internalType": "bool",
          "name": "isPremium",
          "type": "bool"
        },
        {
          "internalType": "uint256",
          "name": "registrationDate",
          "type": "uint256"
        },
        {
          "internalType": "uint256",
          "name": "storeCount",
          "type": "uint256"
        }
      ],
      "stateMutability": "view",
      "type": "function"
    },
    {
      "inputs": [],
      "name": "owner",
      "outputs": [
        {
          "internalType": "address",
          "name": "",
          "type": "address"
        }
      ],
      "stateMutability": "view",
      "type": "function"
    },
    {
      "inputs": [
        {
          "internalType": "bool",
          "name": "isPremium",
          "type": "bool"
        },
        {
          "internalType": "address[]",
          "name": "acceptedTokens",
          "type": "address[]"
        }
      ],
      "name": "registerMerchant",
      "outputs": [],
      "stateMutability": "nonpayable",
      "type": "function"
    },
    {
      "inputs": [
        {
          "internalType": "address",
          "name": "walletAddress",
          "type": "address"
        },
        {
          "internalType": "address[]",
          "name": "newTokens",
          "type": "address[]"
        }
      ],
      "name": "updateAcceptedTokens",
      "outputs": [],
      "stateMutability": "nonpayable",
      "type": "function"
    }
  ],
  "bytecode": "0x608060405234801561001057600080fd5b50336000806101000a81548173ffffffffffffffffffffffffffffffffffffffff021916908373ffffffffffffffffffffffffffffffffffffffff160217905550610f3c806100606000396000f3fe608060405234801561001057600080fd5b50600436106100885760003560e01c8063800270741161005b578063800270741461012b5780638da5cb5b14610147578063ee14e93914610165578063fe34095c1461019957610088565b80630d8243521461008d5780630e733ef1146100bd57806344d4aeb0146100f157806378182b341461010f575b600080fd5b6100a760048036038101906100a29190610986565b6101c9565b6040516100b491906109ce565b60405180910390f35b6100d760048036038101906100d29190610986565b610222565b6040516100e8959493929190610ac0565b60405180910390f35b6100f961033b565b6040516101069190610b1a565b60405180910390f35b61012960048036038101906101249190610bc6565b610348565b005b61014560048036038101906101409190610c26565b610619565b005b61014f61076d565b60405161015c9190610c95565b60405180910390f35b61017f600480360381019061017a9190610986565b610791565b604051610190959493929190610cb0565b60405180910390f35b6101b360048036038101906101ae9190610d2f565b610801565b6040516101c09190610c95565b60405180910390f35b6000600160008373ffffffffffffffffffffffffffffffffffffffff1673ffffffffffffffffffffffffffffffffffffffff16815260200190815260200160002060000160009054906101000a900460ff169050919050565b60008060008060606000600160008873ffffffffffffffffffffffffffffffffffffffff1673ffffffffffffffffffffffffffffffffffffffff16815260200190815260200160002090508060000160009054906101000a900460ff168160000160159054906101000a900460ff1682600101548360030154846002018080548060200260200160405190810160405280929190818152602001828054801561032057602002820191906000526020600020905b8160009054906101000a900473ffffffffffffffffffffffffffffffffffffffff1673ffffffffffffffffffffffffffffffffffffffff16815260200190600101908083116102d6575b50505050509050955095509550955095505091939590929450565b6000600280549050905090565b600160003373ffffffffffffffffffffffffffffffffffffffff1673ffffffffffffffffffffffffffffffffffffffff16815260200190815260200160002060000160009054906101000a900460ff16156103d8576040517f08c379a00000000000000000000000000000000000000000000000000000000081526004016103cf90610db9565b60405180910390fd5b6000600160003373ffffffffffffffffffffffffffffffffffffffff1673ffffffffffffffffffffffffffffffffffffffff168152602001908152602001600020905060018160000160006101000a81548160ff021916908315150217905550338160000160016101000a81548173ffffffffffffffffffffffffffffffffffffffff021916908373ffffffffffffffffffffffffffffffffffffffff160217905550838160000160156101000a81548160ff021916908315150217905550428160010181905550600081600301819055508060020160006104ba9190610840565b60005b8383905081101561056157816002018484838181106104df576104de610dd9565b5b90506020020160208101906104f49190610986565b9080600181540180825580915050600190039060005260206000200160009091909190916101000a81548173ffffffffffffffffffffffffffffffffffffffff021916908373ffffffffffffffffffffffffffffffffffffffff16021790555080806001019150506104bd565b506002339080600181540180825580915050600190039060005260206000200160009091909190916101000a81548173ffffffffffffffffffffffffffffffffffffffff021916908373ffffffffffffffffffffffffffffffffffffffff1602179055503373ffffffffffffffffffffffffffffffffffffffff167fcbf8d92b47e3521ddd35d4b21b5774b4f88c19d2264c60ea1c3deb007552a5368560405161060b91906109ce565b60405180910390a250505050565b8273ffffffffffffffffffffffffffffffffffffffff163373ffffffffffffffffffffffffffffffffffffffff1614610687576040517f08c379a000000000000000000000000000000000000000000000000000000000815260040161067e90610e7a565b60405180910390fd5b600160008473ffffffffffffffffffffffffffffffffffffffff1673ffffffffffffffffffffffffffffffffffffffff16815260200190815260200160002060000160009054906101000a900460ff16610716576040517f08c379a000000000000000000000000000000000000000000000000000000000815260040161070d90610ee6565b60405180910390fd5b8181600160008673ffffffffffffffffffffffffffffffffffffffff1673ffffffffffffffffffffffffffffffffffffffff1681526020019081526020016000206002019190610767929190610861565b50505050565b60008054906101000a900473ffffffffffffffffffffffffffffffffffffffff1681565b60016020528060005260406000206000915090508060000160009054906101000a900460ff16908060000160019054906101000a900473ffffffffffffffffffffffffffffffffffffffff16908060000160159054906101000a900460ff16908060010154908060030154905085565b6002818154811061081157600080fd5b906000526020600020016000915054906101000a900473ffffffffffffffffffffffffffffffffffffffff1681565b508054600082559060005260206000209081019061085e9190610901565b50565b8280548282559060005260206000209081019282156108f0579160200282015b828111156108ef57823573ffffffffffffffffffffffffffffffffffffffff168260006101000a81548173ffffffffffffffffffffffffffffffffffffffff021916908373ffffffffffffffffffffffffffffffffffffffff16021790555091602001919060010190610881565b5b5090506108fd9190610901565b5090565b5b8082111561091a576000816000905550600101610902565b5090565b600080fd5b600080fd5b600073ffffffffffffffffffffffffffffffffffffffff82169050919050565b600061095382610928565b9050919050565b61096381610948565b811461096e57600080fd5b50565b6000813590506109808161095a565b92915050565b60006020828403121561099c5761099b61091e565b5b60006109aa84828501610971565b91505092915050565b60008115159050919050565b6109c8816109b3565b82525050565b60006020820190506109e360008301846109bf565b92915050565b6000819050919050565b6109fc816109e9565b82525050565b600081519050919050565b600082825260208201905092915050565b6000819050602082019050919050565b610a3781610948565b82525050565b6000610a498383610a2e565b60208301905092915050565b6000602082019050919050565b6000610a6d82610a02565b610a778185610a0d565b9350610a8283610a1e565b8060005b83811015610ab3578151610a9a8882610a3d565b9750610aa583610a55565b925050600181019050610a86565b5085935050505092915050565b600060a082019050610ad560008301886109bf565b610ae260208301876109bf565b610aef60408301866109f3565b610afc60608301856109f3565b8181036080830152610b0e8184610a62565b90509695505050505050565b6000602082019050610b2f60008301846109f3565b92915050565b610b3e816109b3565b8114610b4957600080fd5b50565b600081359050610b5b81610b35565b92915050565b600080fd5b600080fd5b600080fd5b60008083601f840112610b8657610b85610b61565b5b8235905067ffffffffffffffff811115610ba357610ba2610b66565b5b602083019150836020820283011115610bbf57610bbe610b6b565b5b9250929050565b600080600060408486031215610bdf57610bde61091e565b5b6000610bed86828701610b4c565b935050602084013567ffffffffffffffff811115610c0e57610c0d610923565b5b610c1a86828701610b70565b92509250509250925092565b600080600060408486031215610c3f57610c3e61091e565b5b6000610c4d86828701610971565b935050602084013567ffffffffffffffff811115610c6e57610c6d610923565b5b610c7a86828701610b70565b92509250509250925092565b610c8f81610948565b82525050565b6000602082019050610caa6000830184610c86565b92915050565b600060a082019050610cc560008301886109bf565b610cd26020830187610c86565b610cdf60408301866109bf565b610cec60608301856109f3565b610cf960808301846109f3565b9695505050505050565b610d0c816109e9565b8114610d1757600080fd5b50565b600081359050610d2981610d03565b92915050565b600060208284031215610d4557610d4461091e565b5b6000610d5384828501610d1a565b91505092915050565b600082825260208201905092915050565b7f4d65726368616e7420616c726561647920726567697374657265642e00000000600082015250565b6000610da3601c83610d5c565b9150610dae82610d6d565b602082019050919050565b60006020820190508181036000830152610dd281610d96565b9050919050565b7f4e487b7100000000000000000000000000000000000000000000000000000000600052603260045260246000fd5b7f556e617574686f72697a65643a2063616e206f6e6c792075706461746520796f60008201527f7572206f776e20746f6b656e7300000000000000000000000000000000000000602082015250565b6000610e64602d83610d5c565b9150610e6f82610e08565b604082019050919050565b60006020820190508181036000830152610e9381610e57565b9050919050565b7f4d65726368616e74206e6f7420726567697374657265642e0000000000000000600082015250565b6000610ed0601883610d5c565b9150610edb82610e9a565b602082019050919050565b60006020820190508181036000830152610eff81610ec3565b905091905056fea264697066735822122011f53fa52f31466afbddeda2d73a8e532689c662ca96e0963e28d31bee312e6064736f6c63430008180033",
  "linkReferences": {},
  "deployedLinkReferences": {}
}